:100000001CC063C262C261C2D7C060C25EC25DC2B0
:1000100017C25BC225C11DC225C257C256C255C2F6
:1000200063C153C252C251C250C24FC24EC24DC22E
:100030004CC24BC23F003F11800011241FBECFEFC6
:10004000CDBFDFE3DEBFE4E3F0E040E017C0B591F1
:10005000A59135912591059107FD0CC0959185914C
:10006000EF01F92FE82F05900D92A217B307D9F7EA
:10007000FE0104C01D92A217B307E1F7E933F407AC
:0A00800031F7C6D0FFC1F894FFCF9E
:10008A00CF93DF93C1E0D0E0C0930A3FD0930B3FF8
:10009A001092083F1092093F8FEF9FEF8093063F1F
:1000AA009093073F80930C3F90930D3FBAD1809372
:1000BA00043F9093053F84E190E08093023F909340
:1000CA00033F80E494E0DC011896EC91E370F0E0E1
:1000DA00EE0FFF1FEE59FC4720813181A0E0BAE004
:1000EA0096962D933C9397979896CD93DC939997F0
:1000FA00EC01E885E370F0E0EE0FFF1FEE5BFC47D2
:10010A00808191819A968D939C939B9786E59CE03A
:10011A009C968D939C939D9790961D921C92919775
:0A012A0010920E3FDF91CF9108956F
:10013400BDD02C98249A2798E7E3F4E08081886066
:1001440080838081887F816080834098E0E5F4E04B
:100154008081886080834198E1E5F4E08081886053
:1001640080834298E2E5F4E080818860808343984C
:10017400E3E5F4E08081886080834C984498E4E56A
:10018400F4E080818860808380818F7780838081A0
:10019400887F816080834598E5E5F4E0808188600C
:1001A4008083EDD019D173D164D1F5D086D187D1B4
:0401B40082D1089557
:1001B8001F921FB61F9211248F939F93EF93FF9363
:1001C800809129048823C4F4379911C02C98299860
:1001D80028981092083F1092093F8FEF9FEF809365
:1001E800063F9093073F1092200A1092210AE0E2FE
:1001F800F4E0818580788187FF91EF919F918F91BD
:080208001F901FBE1F90189506
:100210005AD102D13ADF7894CBD081E080930F3F5E
:10022000C0E0DAE011E011C08AB182FB882780F9D2
:1002300090910F3F981749F0529B04C0B9D010938A
:100240000F3F03C0C0D010920F3F549902C0559B7E
:10025000EBCF2898299818A219A21092103FF5CF39
:100260001F921FB61F9211248F93549911C0559954
:100270000FC08091103F882329F02998289A109266
:10028000103F0DC0299A289881E08093103F07C045
:100290002998289880910E3F8F5F80930E3F2C9A6B
:1002A00080E180930B0A8F911F901FBE1F901895BD
:1002B000E0E1F4E0808188608193E83184E0F80730
:1002C000C9F7E0E3F4E0808188608193E83384E05B
:1002D000F807C9F7E0E5F4E0808188608193E835AC
:0802E00084E0F807C9F7089556
:1002E8008F938FB78F939F93299828988091003F79
:1002F8009091013F01968093003F9093013F81E0E8
:0E030800809377069F918F918FBF8F911895EC
:10031600E0E0FAE08FEF9FEF80A791A782A793A76F
:1003260084A795A710A211A220E7218321E32287A3
:0C03360086A397A381E0808380E00895F7
:100342006A186A186A186A18FA00FA00FA00FA00BB
:1003520053005300530053007D007D007D007D005B
:1003620042015D07B00E921316005500A000D200A4
:100372000E0022003B004C0010002F0055006E00C2
:1003820043E068ED81E690E08FD042E068ED80E7DF
:0803920090E08AD080E008959C
:10039A00E7E1F4E08081887F846080838081877FC1
:0603AA0080832BD00895B2
:1003B000E0E0FAE084EF91E086A397A382EC91E07D
:0603C00082A793A7089537
:1003C600E0E0FAE080E590E086A397A38CE390E076
:0603D60082A793A7089521
:1003DC002398E3E3F4E08081877F80832A98229A34
:0403EC0001D008959F
:1003F000E0E0F8E083E298E08087918780EC8683F4
:0404000080E00895FB
:10040400E0E7F6E081E0868382E0828385E380830F
:0404140080E00895E7
:1004180010922404E0E4F4E088E0808B818B828BE6
:04042800838B089525
:10042C0038D0E82FF0E0EE0FFF1FEE54FB47808131
:04043C00918108950D
:100440008F93299828982C9A81E080930B0A8F919A
:020450001895FD
:100452008F93289829982C9A80E280930B0A8F9187
:020462001895EB
:100464008F93299828982C9A80E480930B0A8F9173
:020474001895D9
:0E0476001092A00081E08093A10080E0089524
:0E048400EC0124D022D0CE0122D0CE0121D016
:0C0492002898209A2998219A3DDF0895AF
:0C049E00809148048C7086958695089526
:0804AA00FC0164BF40830895CA
:0804B2000A0014003200F401FD
:0404BA0080E0089541
:0404BE0080E008953D
:0404C20080E0089539
:0404C60036DE089581
:0204CA009ACDC9
:0204CC00189581
:0204CE0008958F
:0204D00008958D
:0204D20008958B
:0204D400D8DD71
:00000001FF
