:100000001CC07DC27CC27BC2D7C002C178C277C28D
:1000100031C275C228C137C23FC271C270C26FC23D
:1000200082C16DC26CC26BC26AC269C268C267C259
:1000300066C265C23F003F11800011241FBECFEF92
:10004000CDBFDFE3DEBFE4E3F0E040E017C0B591F1
:10005000A59135912591059107FD0CC0959185914C
:10006000EF01F92FE82F05900D92A217B307D9F7EA
:10007000FE0104C01D92A217B307E1F7E933F407AC
:0A00800031F77ED119C2F894FFCFCA
:10008A00CF93DF93C1E0D0E0C0930A3FD0930B3FF8
:10009A001092083F1092093F8FEF9FEF8093063F1F
:1000AA009093073F80930C3F90930D3FD4D1809358
:1000BA00043F9093053F84E190E08093023F909340
:1000CA00033F80E494E0DC011896EC91E370F0E0E1
:1000DA00EE0FFF1FEE53FC4720813181A0E0BAE00A
:1000EA0096962D933C9397979896CD93DC939997F0
:1000FA00EC01E885E370F0E0EE0FFF1FEE55FC47D8
:10010A00808191819A968D939C939B9786E59CE03A
:10011A009C968D939C939D9790961D921C92919775
:0A012A0010920E3FDF91CF9108956F
:10013400C0D02C98249A2798E7E3F4E08081886063
:1001440080838081887F816080834098E0E5F4E04B
:100154008081886080834198E1E5F4E08081886053
:1001640080834298E2E5F4E080818860808343984C
:10017400E3E5F4E08081886080834C984498E4E56A
:10018400F4E080818860808380818F7780838081A0
:10019400887F816080834598E5E5F4E0808188600C
:1001A40080831DD133D18DD17ED125D1A0D1A1D1D0
:0401B4009CD108953D
:1001B8001F921FB61F9211248F939F93EF93FF9363
:1001C800809129048823C4F4379911C02C98299860
:1001D80028981092083F1092093F8FEF9FEF809365
:1001E800063F9093073F1092200A1092210AE0E2FE
:1001F800F4E0818580788187FF91EF919F918F91BD
:080208001F901FBE1F90189506
:100210001F920F920FB60F9211242F933F934F937B
:100220005F936F937F938F939F93AF93BF93EF935E
:10023000FF938091490483FD5AD0E0E4F4E0818586
:1002400088708187FF91EF91BF91AF919F918F91BE
:100250007F916F915F914F913F912F910F900FBEC2
:060260000F901F9018959D
:100266001F921FB61F9211248F93549911C055994E
:100276000FC080910F3F882329F02998289A109261
:100286000F3F0DC0299A289881E080930F3F07C041
:100296002998289880910E3F8F5F80930E3F2C9A65
:1002A60080E180930B0A8F911F901FBE1F901895B7
:1002B600E0E1F4E0808188608193E83184E0F8072A
:1002C600C9F7E0E3F4E0808188608193E83384E055
:1002D600F807C9F7E0E5F4E0808188608193E835A6
:0802E60084E0F807C9F7089550
:1002EE00809148048F708093103F90E020910C3FD6
:1002FE0030910D3F8217930771F0E0E0FAE024EFA2
:10030E0031E026A337A322EC31E022A733A7809356
:08031E000C3F90930D3F089580
:100326008F938FB78F939F93299828988091003F3A
:100336009091013F01968093003F9093013F81E0A9
:0E034600809377069F918F918FBF8F911895AE
:10035400E0E0FAE08FEF9FEF80A791A782A793A731
:1003640084A795A710A211A220E7218321E3228765
:0C03740086A397A381E0808380E00895B9
:10038000BCD064D082DE7894B2DFE0E0FAE0549929
:1003900002C0559BFCCF2898299810A211A22C9A34
:0203A000F6CF96
:1003A2006A186A186A186A18FA00FA00FA00FA005B
:1003B20053005300530053007D007D007D007D00FB
:1003C20042015D07B00E921316005500A000D20044
:1003D2000E0022003B004C0010002F0055006E0062
:1003E20043E068ED81E690E079D042E068ED80E795
:0803F20090E074D080E0089552
:1003FA00E7E1F4E08081887F846080838081877F61
:06040A00808315D0089567
:100410002398E3E3F4E08081877F80832A98229AFF
:0404200001D008956A
:10042400E0E0F8E083E298E08087918780EC8683BF
:0404340080E00895C7
:10043800E0E7F6E081E0868382E0828385E38083DB
:0404480080E00895B3
:10044C0010922404E0E4F4E088E0808B818B828BB2
:04045C00838B0895F1
:1004600038D0E82FF0E0EE0FFF1FEA51FB47808104
:0404700091810895D9
:100474008F93299828982C9A81E080930B0A8F9166
:020484001895C9
:100486008F93289829982C9A80E280930B0A8F9153
:020496001895B7
:100498008F93299828982C9A80E480930B0A8F913F
:0204A8001895A5
:0E04AA001092A00081E08093A10080E00895F0
:0E04B800EC0123D021D0CE0121D0CE0120D0E6
:0C04C6002898209A2998219A42DF089576
:0C04D200809148048C70869586950895F2
:0804DE00FC0164BF4083089596
:0804E6000A0014003200F401C9
:0404EE0080E008950D
:0404F20080E0089509
:0404F60080E0089505
:0404FA001CDE089567
:0204FE0080CDAF
:0205000008955C
:0205020008955A
:02050400089558
:02050600BFDD57
:00000001FF
